{
	"contracts/Founds.sol": {
		"Founds": {
			"abi": [
				{
					"inputs": [
						{
							"internalType": "uint256",
							"name": "target",
							"type": "uint256"
						}
					],
					"stateMutability": "nonpayable",
					"type": "constructor"
				},
				{
					"inputs": [],
					"name": "countDonators",
					"outputs": [
						{
							"internalType": "uint256",
							"name": "",
							"type": "uint256"
						}
					],
					"stateMutability": "view",
					"type": "function"
				},
				{
					"inputs": [],
					"name": "donate",
					"outputs": [],
					"stateMutability": "payable",
					"type": "function"
				},
				{
					"inputs": [],
					"name": "goal",
					"outputs": [
						{
							"internalType": "uint256",
							"name": "",
							"type": "uint256"
						}
					],
					"stateMutability": "view",
					"type": "function"
				},
				{
					"inputs": [],
					"name": "saldo",
					"outputs": [
						{
							"internalType": "uint256",
							"name": "",
							"type": "uint256"
						}
					],
					"stateMutability": "view",
					"type": "function"
				},
				{
					"inputs": [
						{
							"internalType": "uint256",
							"name": "value",
							"type": "uint256"
						}
					],
					"name": "take",
					"outputs": [],
					"stateMutability": "payable",
					"type": "function"
				}
			],
			"devdoc": {
				"kind": "dev",
				"methods": {},
				"version": 1
			},
			"evm": {
				"assembly": "    /* \"contracts/Founds.sol\":101:2400  contract Founds {... */\n  mstore(0x40, 0x80)\n    /* \"contracts/Founds.sol\":146:147  0 */\n  0x00\n    /* \"contracts/Founds.sol\":123:147  uint256 public saldo = 0 */\n  dup1\n  sstore\n    /* \"contracts/Founds.sol\":238:239  0 */\n  0x00\n    /* \"contracts/Founds.sol\":207:239  uint256 public countDonators = 0 */\n  0x03\n  sstore\n    /* \"contracts/Founds.sol\":426:431  false */\n  0x00\n    /* \"contracts/Founds.sol\":412:431  bool closed = false */\n  0x05\n  exp(0x0100, 0x00)\n  dup2\n  sload\n  dup2\n  0xff\n  mul\n  not\n  and\n  swap1\n  dup4\n  iszero\n  iszero\n  mul\n  or\n  swap1\n  sstore\n  pop\n    /* \"contracts/Founds.sol\":549:656  constructor(uint256 target) {... */\n  callvalue\n  dup1\n  iszero\n  tag_1\n  jumpi\n  0x00\n  dup1\n  revert\ntag_1:\n  pop\n  mload(0x40)\n  sub(codesize, bytecodeSize)\n  dup1\n  bytecodeSize\n  dup4\n  codecopy\n  dup2\n  dup2\n  add\n  0x40\n  mstore\n  dup2\n  add\n  swap1\n  tag_2\n  swap2\n  swap1\n  tag_3\n  jump\t// in\ntag_2:\n    /* \"contracts/Founds.sol\":603:613  msg.sender */\n  caller\n    /* \"contracts/Founds.sol\":587:592  owner */\n  0x01\n  0x00\n    /* \"contracts/Founds.sol\":587:614  owner = payable(msg.sender) */\n  0x0100\n  exp\n  dup2\n  sload\n  dup2\n  0xffffffffffffffffffffffffffffffffffffffff\n  mul\n  not\n  and\n  swap1\n  dup4\n  0xffffffffffffffffffffffffffffffffffffffff\n  and\n  mul\n  or\n  swap1\n  sstore\n  pop\n    /* \"contracts/Founds.sol\":631:649  etherValue(target) */\n  tag_6\n    /* \"contracts/Founds.sol\":642:648  target */\n  dup2\n    /* \"contracts/Founds.sol\":631:641  etherValue */\n  shl(0x20, tag_7)\n    /* \"contracts/Founds.sol\":631:649  etherValue(target) */\n  0x20\n  shr\n  jump\t// in\ntag_6:\n    /* \"contracts/Founds.sol\":624:628  goal */\n  0x02\n    /* \"contracts/Founds.sol\":624:649  goal = etherValue(target) */\n  dup2\n  swap1\n  sstore\n  pop\n    /* \"contracts/Founds.sol\":549:656  constructor(uint256 target) {... */\n  pop\n    /* \"contracts/Founds.sol\":101:2400  contract Founds {... */\n  jump(tag_8)\n    /* \"contracts/Founds.sol\":438:539  function etherValue(uint value) internal pure returns (uint){... */\ntag_7:\n    /* \"contracts/Founds.sol\":493:497  uint */\n  0x00\n    /* \"contracts/Founds.sol\":524:531  1 ether */\n  0x0de0b6b3a7640000\n    /* \"contracts/Founds.sol\":516:521  value */\n  dup3\n    /* \"contracts/Founds.sol\":516:531  value * 1 ether */\n  tag_10\n  swap2\n  swap1\n  tag_11\n  jump\t// in\ntag_10:\n    /* \"contracts/Founds.sol\":508:532  return (value * 1 ether) */\n  swap1\n  pop\n    /* \"contracts/Founds.sol\":438:539  function etherValue(uint value) internal pure returns (uint){... */\n  swap2\n  swap1\n  pop\n  jump\t// out\n    /* \"#utility.yul\":88:205   */\ntag_13:\n    /* \"#utility.yul\":197:198   */\n  0x00\n    /* \"#utility.yul\":194:195   */\n  dup1\n    /* \"#utility.yul\":187:199   */\n  revert\n    /* \"#utility.yul\":334:411   */\ntag_15:\n    /* \"#utility.yul\":371:378   */\n  0x00\n    /* \"#utility.yul\":400:405   */\n  dup2\n    /* \"#utility.yul\":389:405   */\n  swap1\n  pop\n    /* \"#utility.yul\":334:411   */\n  swap2\n  swap1\n  pop\n  jump\t// out\n    /* \"#utility.yul\":417:539   */\ntag_16:\n    /* \"#utility.yul\":490:514   */\n  tag_25\n    /* \"#utility.yul\":508:513   */\n  dup2\n    /* \"#utility.yul\":490:514   */\n  tag_15\n  jump\t// in\ntag_25:\n    /* \"#utility.yul\":483:488   */\n  dup2\n    /* \"#utility.yul\":480:515   */\n  eq\n    /* \"#utility.yul\":470:533   */\n  tag_26\n  jumpi\n    /* \"#utility.yul\":529:530   */\n  0x00\n    /* \"#utility.yul\":526:527   */\n  dup1\n    /* \"#utility.yul\":519:531   */\n  revert\n    /* \"#utility.yul\":470:533   */\ntag_26:\n    /* \"#utility.yul\":417:539   */\n  pop\n  jump\t// out\n    /* \"#utility.yul\":545:688   */\ntag_17:\n    /* \"#utility.yul\":602:607   */\n  0x00\n    /* \"#utility.yul\":633:639   */\n  dup2\n    /* \"#utility.yul\":627:640   */\n  mload\n    /* \"#utility.yul\":618:640   */\n  swap1\n  pop\n    /* \"#utility.yul\":649:682   */\n  tag_28\n    /* \"#utility.yul\":676:681   */\n  dup2\n    /* \"#utility.yul\":649:682   */\n  tag_16\n  jump\t// in\ntag_28:\n    /* \"#utility.yul\":545:688   */\n  swap3\n  swap2\n  pop\n  pop\n  jump\t// out\n    /* \"#utility.yul\":694:1045   */\ntag_3:\n    /* \"#utility.yul\":764:770   */\n  0x00\n    /* \"#utility.yul\":813:815   */\n  0x20\n    /* \"#utility.yul\":801:810   */\n  dup3\n    /* \"#utility.yul\":792:799   */\n  dup5\n    /* \"#utility.yul\":788:811   */\n  sub\n    /* \"#utility.yul\":784:816   */\n  slt\n    /* \"#utility.yul\":781:900   */\n  iszero\n  tag_30\n  jumpi\n    /* \"#utility.yul\":819:898   */\n  tag_31\n  tag_13\n  jump\t// in\ntag_31:\n    /* \"#utility.yul\":781:900   */\ntag_30:\n    /* \"#utility.yul\":939:940   */\n  0x00\n    /* \"#utility.yul\":964:1028   */\n  tag_32\n    /* \"#utility.yul\":1020:1027   */\n  dup5\n    /* \"#utility.yul\":1011:1017   */\n  dup3\n    /* \"#utility.yul\":1000:1009   */\n  dup6\n    /* \"#utility.yul\":996:1018   */\n  add\n    /* \"#utility.yul\":964:1028   */\n  tag_17\n  jump\t// in\ntag_32:\n    /* \"#utility.yul\":954:1028   */\n  swap2\n  pop\n    /* \"#utility.yul\":910:1038   */\n  pop\n    /* \"#utility.yul\":694:1045   */\n  swap3\n  swap2\n  pop\n  pop\n  jump\t// out\n    /* \"#utility.yul\":1051:1231   */\ntag_18:\n    /* \"#utility.yul\":1099:1176   */\n  0x4e487b7100000000000000000000000000000000000000000000000000000000\n    /* \"#utility.yul\":1096:1097   */\n  0x00\n    /* \"#utility.yul\":1089:1177   */\n  mstore\n    /* \"#utility.yul\":1196:1200   */\n  0x11\n    /* \"#utility.yul\":1193:1194   */\n  0x04\n    /* \"#utility.yul\":1186:1201   */\n  mstore\n    /* \"#utility.yul\":1220:1224   */\n  0x24\n    /* \"#utility.yul\":1217:1218   */\n  0x00\n    /* \"#utility.yul\":1210:1225   */\n  revert\n    /* \"#utility.yul\":1237:1647   */\ntag_11:\n    /* \"#utility.yul\":1277:1284   */\n  0x00\n    /* \"#utility.yul\":1300:1320   */\n  tag_35\n    /* \"#utility.yul\":1318:1319   */\n  dup3\n    /* \"#utility.yul\":1300:1320   */\n  tag_15\n  jump\t// in\ntag_35:\n    /* \"#utility.yul\":1295:1320   */\n  swap2\n  pop\n    /* \"#utility.yul\":1334:1354   */\n  tag_36\n    /* \"#utility.yul\":1352:1353   */\n  dup4\n    /* \"#utility.yul\":1334:1354   */\n  tag_15\n  jump\t// in\ntag_36:\n    /* \"#utility.yul\":1329:1354   */\n  swap3\n  pop\n    /* \"#utility.yul\":1389:1390   */\n  dup3\n    /* \"#utility.yul\":1386:1387   */\n  dup3\n    /* \"#utility.yul\":1382:1391   */\n  mul\n    /* \"#utility.yul\":1411:1441   */\n  tag_37\n    /* \"#utility.yul\":1429:1440   */\n  dup2\n    /* \"#utility.yul\":1411:1441   */\n  tag_15\n  jump\t// in\ntag_37:\n    /* \"#utility.yul\":1400:1441   */\n  swap2\n  pop\n    /* \"#utility.yul\":1590:1591   */\n  dup3\n    /* \"#utility.yul\":1581:1588   */\n  dup3\n    /* \"#utility.yul\":1577:1592   */\n  div\n    /* \"#utility.yul\":1574:1575   */\n  dup5\n    /* \"#utility.yul\":1571:1593   */\n  eq\n    /* \"#utility.yul\":1551:1552   */\n  dup4\n    /* \"#utility.yul\":1544:1553   */\n  iszero\n    /* \"#utility.yul\":1524:1607   */\n  or\n    /* \"#utility.yul\":1501:1640   */\n  tag_38\n  jumpi\n    /* \"#utility.yul\":1620:1638   */\n  tag_39\n  tag_18\n  jump\t// in\ntag_39:\n    /* \"#utility.yul\":1501:1640   */\ntag_38:\n    /* \"#utility.yul\":1285:1647   */\n  pop\n    /* \"#utility.yul\":1237:1647   */\n  swap3\n  swap2\n  pop\n  pop\n  jump\t// out\n    /* \"contracts/Founds.sol\":101:2400  contract Founds {... */\ntag_8:\n  dataSize(sub_0)\n  dup1\n  dataOffset(sub_0)\n  0x00\n  codecopy\n  0x00\n  return\nstop\n\nsub_0: assembly {\n        /* \"contracts/Founds.sol\":101:2400  contract Founds {... */\n      mstore(0x40, 0x80)\n      jumpi(tag_1, lt(calldatasize, 0x04))\n      shr(0xe0, calldataload(0x00))\n      dup1\n      0x40193883\n      eq\n      tag_2\n      jumpi\n      dup1\n      0x48f0dc42\n      eq\n      tag_3\n      jumpi\n      dup1\n      0x4fd9efc4\n      eq\n      tag_4\n      jumpi\n      dup1\n      0xa41de865\n      eq\n      tag_5\n      jumpi\n      dup1\n      0xed88c68e\n      eq\n      tag_6\n      jumpi\n    tag_1:\n      0x00\n      dup1\n      revert\n        /* \"contracts/Founds.sol\":181:200  uint256 public goal */\n    tag_2:\n      callvalue\n      dup1\n      iszero\n      tag_7\n      jumpi\n      0x00\n      dup1\n      revert\n    tag_7:\n      pop\n      tag_8\n      tag_9\n      jump\t// in\n    tag_8:\n      mload(0x40)\n      tag_10\n      swap2\n      swap1\n      tag_11\n      jump\t// in\n    tag_10:\n      mload(0x40)\n      dup1\n      swap2\n      sub\n      swap1\n      return\n        /* \"contracts/Founds.sol\":207:239  uint256 public countDonators = 0 */\n    tag_3:\n      callvalue\n      dup1\n      iszero\n      tag_12\n      jumpi\n      0x00\n      dup1\n      revert\n    tag_12:\n      pop\n      tag_13\n      tag_14\n      jump\t// in\n    tag_13:\n      mload(0x40)\n      tag_15\n      swap2\n      swap1\n      tag_11\n      jump\t// in\n    tag_15:\n      mload(0x40)\n      dup1\n      swap2\n      sub\n      swap1\n      return\n        /* \"contracts/Founds.sol\":1642:2040  function take(uint256 value) public payable ownerCheck saldoCheck(value) {... */\n    tag_4:\n      tag_16\n      0x04\n      dup1\n      calldatasize\n      sub\n      dup2\n      add\n      swap1\n      tag_17\n      swap2\n      swap1\n      tag_18\n      jump\t// in\n    tag_17:\n      tag_19\n      jump\t// in\n    tag_16:\n      stop\n        /* \"contracts/Founds.sol\":123:147  uint256 public saldo = 0 */\n    tag_5:\n      callvalue\n      dup1\n      iszero\n      tag_20\n      jumpi\n      0x00\n      dup1\n      revert\n    tag_20:\n      pop\n      tag_21\n      tag_22\n      jump\t// in\n    tag_21:\n      mload(0x40)\n      tag_23\n      swap2\n      swap1\n      tag_11\n      jump\t// in\n    tag_23:\n      mload(0x40)\n      dup1\n      swap2\n      sub\n      swap1\n      return\n        /* \"contracts/Founds.sol\":930:1331  function donate() public payable positiveValue goalReached {... */\n    tag_6:\n      tag_24\n      tag_25\n      jump\t// in\n    tag_24:\n      stop\n        /* \"contracts/Founds.sol\":181:200  uint256 public goal */\n    tag_9:\n      sload(0x02)\n      dup2\n      jump\t// out\n        /* \"contracts/Founds.sol\":207:239  uint256 public countDonators = 0 */\n    tag_14:\n      sload(0x03)\n      dup2\n      jump\t// out\n        /* \"contracts/Founds.sol\":1642:2040  function take(uint256 value) public payable ownerCheck saldoCheck(value) {... */\n    tag_19:\n        /* \"contracts/Founds.sol\":1386:1396  msg.sender */\n      caller\n        /* \"contracts/Founds.sol\":1377:1396  owner == msg.sender */\n      0xffffffffffffffffffffffffffffffffffffffff\n      and\n        /* \"contracts/Founds.sol\":1377:1382  owner */\n      0x01\n      0x00\n      swap1\n      sload\n      swap1\n      0x0100\n      exp\n      swap1\n      div\n      0xffffffffffffffffffffffffffffffffffffffff\n      and\n        /* \"contracts/Founds.sol\":1377:1396  owner == msg.sender */\n      0xffffffffffffffffffffffffffffffffffffffff\n      and\n      eq\n        /* \"contracts/Founds.sol\":1369:1421  require(owner == msg.sender, \"You're not the owner\") */\n      tag_27\n      jumpi\n      mload(0x40)\n      0x08c379a000000000000000000000000000000000000000000000000000000000\n      dup2\n      mstore\n      0x04\n      add\n      tag_28\n      swap1\n      tag_29\n      jump\t// in\n    tag_28:\n      mload(0x40)\n      dup1\n      swap2\n      sub\n      swap1\n      revert\n    tag_27:\n        /* \"contracts/Founds.sol\":1708:1713  value */\n      dup1\n        /* \"contracts/Founds.sol\":1503:1520  etherValue(value) */\n      tag_31\n        /* \"contracts/Founds.sol\":1514:1519  value */\n      dup2\n        /* \"contracts/Founds.sol\":1503:1513  etherValue */\n      tag_32\n        /* \"contracts/Founds.sol\":1503:1520  etherValue(value) */\n      jump\t// in\n    tag_31:\n        /* \"contracts/Founds.sol\":1494:1499  saldo */\n      sload(0x00)\n        /* \"contracts/Founds.sol\":1494:1520  saldo >= etherValue(value) */\n      lt\n      iszero\n        /* \"contracts/Founds.sol\":1486:1544  require(saldo >= etherValue(value), \"Saldo is not enough\") */\n      tag_33\n      jumpi\n      mload(0x40)\n      0x08c379a000000000000000000000000000000000000000000000000000000000\n      dup2\n      mstore\n      0x04\n      add\n      tag_34\n      swap1\n      tag_35\n      jump\t// in\n    tag_34:\n      mload(0x40)\n      dup1\n      swap2\n      sub\n      swap1\n      revert\n    tag_33:\n        /* \"contracts/Founds.sol\":1725:1736  uint ethers */\n      0x00\n        /* \"contracts/Founds.sol\":1739:1756  etherValue(value) */\n      tag_37\n        /* \"contracts/Founds.sol\":1750:1755  value */\n      dup4\n        /* \"contracts/Founds.sol\":1739:1749  etherValue */\n      tag_32\n        /* \"contracts/Founds.sol\":1739:1756  etherValue(value) */\n      jump\t// in\n    tag_37:\n        /* \"contracts/Founds.sol\":1725:1756  uint ethers = etherValue(value) */\n      swap1\n      pop\n        /* \"contracts/Founds.sol\":1767:1776  bool sent */\n      0x00\n        /* \"contracts/Founds.sol\":1782:1787  owner */\n      0x01\n      0x00\n      swap1\n      sload\n      swap1\n      0x0100\n      exp\n      swap1\n      div\n      0xffffffffffffffffffffffffffffffffffffffff\n      and\n        /* \"contracts/Founds.sol\":1782:1792  owner.call */\n      0xffffffffffffffffffffffffffffffffffffffff\n      and\n        /* \"contracts/Founds.sol\":1800:1806  ethers */\n      dup3\n        /* \"contracts/Founds.sol\":1782:1811  owner.call{value: ethers}(\"\") */\n      mload(0x40)\n      tag_38\n      swap1\n      tag_39\n      jump\t// in\n    tag_38:\n      0x00\n      mload(0x40)\n      dup1\n      dup4\n      sub\n      dup2\n      dup6\n      dup8\n      gas\n      call\n      swap3\n      pop\n      pop\n      pop\n      returndatasize\n      dup1\n      0x00\n      dup2\n      eq\n      tag_42\n      jumpi\n      mload(0x40)\n      swap2\n      pop\n      and(add(returndatasize, 0x3f), not(0x1f))\n      dup3\n      add\n      0x40\n      mstore\n      returndatasize\n      dup3\n      mstore\n      returndatasize\n      0x00\n      0x20\n      dup5\n      add\n      returndatacopy\n      jump(tag_41)\n    tag_42:\n      0x60\n      swap2\n      pop\n    tag_41:\n      pop\n        /* \"contracts/Founds.sol\":1766:1811  (bool sent, ) = owner.call{value: ethers}(\"\") */\n      pop\n      swap1\n      pop\n        /* \"contracts/Founds.sol\":1829:1833  sent */\n      dup1\n        /* \"contracts/Founds.sol\":1821:1849  require(sent, \"Failed sent\") */\n      tag_43\n      jumpi\n      mload(0x40)\n      0x08c379a000000000000000000000000000000000000000000000000000000000\n      dup2\n      mstore\n      0x04\n      add\n      tag_44\n      swap1\n      tag_45\n      jump\t// in\n    tag_44:\n      mload(0x40)\n      dup1\n      swap2\n      sub\n      swap1\n      revert\n    tag_43:\n        /* \"contracts/Founds.sol\":1898:1904  ethers */\n      dup2\n        /* \"contracts/Founds.sol\":1889:1894  saldo */\n      0x00\n      dup1\n        /* \"contracts/Founds.sol\":1889:1904  saldo -= ethers */\n      dup3\n      dup3\n      sload\n      tag_46\n      swap2\n      swap1\n      tag_47\n      jump\t// in\n    tag_46:\n      swap3\n      pop\n      pop\n      dup2\n      swap1\n      sstore\n      pop\n        /* \"contracts/Founds.sol\":1982:1993  goalCheck() */\n      tag_48\n        /* \"contracts/Founds.sol\":1982:1991  goalCheck */\n      tag_49\n        /* \"contracts/Founds.sol\":1982:1993  goalCheck() */\n      jump\t// in\n    tag_48:\n        /* \"contracts/Founds.sol\":1977:2034  if (!goalCheck()) {... */\n      tag_50\n      jumpi\n        /* \"contracts/Founds.sol\":2018:2023  false */\n      0x00\n        /* \"contracts/Founds.sol\":2009:2015  closed */\n      0x05\n      0x00\n        /* \"contracts/Founds.sol\":2009:2023  closed = false */\n      0x0100\n      exp\n      dup2\n      sload\n      dup2\n      0xff\n      mul\n      not\n      and\n      swap1\n      dup4\n      iszero\n      iszero\n      mul\n      or\n      swap1\n      sstore\n      pop\n        /* \"contracts/Founds.sol\":1977:2034  if (!goalCheck()) {... */\n    tag_50:\n        /* \"contracts/Founds.sol\":1715:2040  {... */\n      pop\n      pop\n        /* \"contracts/Founds.sol\":1431:1432  _ */\n      pop\n        /* \"contracts/Founds.sol\":1642:2040  function take(uint256 value) public payable ownerCheck saldoCheck(value) {... */\n      pop\n      jump\t// out\n        /* \"contracts/Founds.sol\":123:147  uint256 public saldo = 0 */\n    tag_22:\n      sload(0x00)\n      dup2\n      jump\t// out\n        /* \"contracts/Founds.sol\":930:1331  function donate() public payable positiveValue goalReached {... */\n    tag_25:\n        /* \"contracts/Founds.sol\":835:836  0 */\n      0x00\n        /* \"contracts/Founds.sol\":823:832  msg.value */\n      callvalue\n        /* \"contracts/Founds.sol\":823:836  msg.value > 0 */\n      gt\n        /* \"contracts/Founds.sol\":815:850  require(msg.value > 0, \"Not money\") */\n      tag_52\n      jumpi\n      mload(0x40)\n      0x08c379a000000000000000000000000000000000000000000000000000000000\n      dup2\n      mstore\n      0x04\n      add\n      tag_53\n      swap1\n      tag_54\n      jump\t// in\n    tag_53:\n      mload(0x40)\n      dup1\n      swap2\n      sub\n      swap1\n      revert\n    tag_52:\n        /* \"contracts/Founds.sol\":713:718  false */\n      0x00\n        /* \"contracts/Founds.sol\":703:718  closed == false */\n      iszero\n      iszero\n        /* \"contracts/Founds.sol\":703:709  closed */\n      0x05\n      0x00\n      swap1\n      sload\n      swap1\n      0x0100\n      exp\n      swap1\n      div\n      0xff\n      and\n        /* \"contracts/Founds.sol\":703:718  closed == false */\n      iszero\n      iszero\n      eq\n        /* \"contracts/Founds.sol\":695:756  require(closed == false, \"Goal reached, the found is closed\") */\n      tag_56\n      jumpi\n      mload(0x40)\n      0x08c379a000000000000000000000000000000000000000000000000000000000\n      dup2\n      mstore\n      0x04\n      add\n      tag_57\n      swap1\n      tag_58\n      jump\t// in\n    tag_57:\n      mload(0x40)\n      dup1\n      swap2\n      sub\n      swap1\n      revert\n    tag_56:\n        /* \"contracts/Founds.sol\":1039:1048  msg.value */\n      callvalue\n        /* \"contracts/Founds.sol\":1030:1035  saldo */\n      0x00\n      dup1\n        /* \"contracts/Founds.sol\":1030:1048  saldo += msg.value */\n      dup3\n      dup3\n      sload\n      tag_60\n      swap2\n      swap1\n      tag_61\n      jump\t// in\n    tag_60:\n      swap3\n      pop\n      pop\n      dup2\n      swap1\n      sstore\n      pop\n        /* \"contracts/Founds.sol\":1150:1158  donators */\n      0x04\n        /* \"contracts/Founds.sol\":1150:1170  donators[msg.sender] */\n      0x00\n        /* \"contracts/Founds.sol\":1159:1169  msg.sender */\n      caller\n        /* \"contracts/Founds.sol\":1150:1170  donators[msg.sender] */\n      0xffffffffffffffffffffffffffffffffffffffff\n      and\n      0xffffffffffffffffffffffffffffffffffffffff\n      and\n      dup2\n      mstore\n      0x20\n      add\n      swap1\n      dup2\n      mstore\n      0x20\n      add\n      0x00\n      keccak256\n      0x00\n      swap1\n      sload\n      swap1\n      0x0100\n      exp\n      swap1\n      div\n      0xff\n      and\n        /* \"contracts/Founds.sol\":1145:1252  if (!donators[msg.sender]){... */\n      tag_62\n      jumpi\n        /* \"contracts/Founds.sol\":1208:1212  true */\n      0x01\n        /* \"contracts/Founds.sol\":1185:1193  donators */\n      0x04\n        /* \"contracts/Founds.sol\":1185:1205  donators[msg.sender] */\n      0x00\n        /* \"contracts/Founds.sol\":1194:1204  msg.sender */\n      caller\n        /* \"contracts/Founds.sol\":1185:1205  donators[msg.sender] */\n      0xffffffffffffffffffffffffffffffffffffffff\n      and\n      0xffffffffffffffffffffffffffffffffffffffff\n      and\n      dup2\n      mstore\n      0x20\n      add\n      swap1\n      dup2\n      mstore\n      0x20\n      add\n      0x00\n      keccak256\n      0x00\n        /* \"contracts/Founds.sol\":1185:1212  donators[msg.sender] = true */\n      0x0100\n      exp\n      dup2\n      sload\n      dup2\n      0xff\n      mul\n      not\n      and\n      swap1\n      dup4\n      iszero\n      iszero\n      mul\n      or\n      swap1\n      sstore\n      pop\n        /* \"contracts/Founds.sol\":1226:1239  countDonators */\n      0x03\n      0x00\n        /* \"contracts/Founds.sol\":1226:1241  countDonators++ */\n      dup2\n      sload\n      dup1\n      swap3\n      swap2\n      swap1\n      tag_63\n      swap1\n      tag_64\n      jump\t// in\n    tag_63:\n      swap2\n      swap1\n      pop\n      sstore\n      pop\n        /* \"contracts/Founds.sol\":1145:1252  if (!donators[msg.sender]){... */\n    tag_62:\n        /* \"contracts/Founds.sol\":1311:1323  closeCheck() */\n      tag_65\n        /* \"contracts/Founds.sol\":1311:1321  closeCheck */\n      tag_66\n        /* \"contracts/Founds.sol\":1311:1323  closeCheck() */\n      jump\t// in\n    tag_65:\n        /* \"contracts/Founds.sol\":930:1331  function donate() public payable positiveValue goalReached {... */\n      jump\t// out\n        /* \"contracts/Founds.sol\":438:539  function etherValue(uint value) internal pure returns (uint){... */\n    tag_32:\n        /* \"contracts/Founds.sol\":493:497  uint */\n      0x00\n        /* \"contracts/Founds.sol\":524:531  1 ether */\n      0x0de0b6b3a7640000\n        /* \"contracts/Founds.sol\":516:521  value */\n      dup3\n        /* \"contracts/Founds.sol\":516:531  value * 1 ether */\n      tag_68\n      swap2\n      swap1\n      tag_69\n      jump\t// in\n    tag_68:\n        /* \"contracts/Founds.sol\":508:532  return (value * 1 ether) */\n      swap1\n      pop\n        /* \"contracts/Founds.sol\":438:539  function etherValue(uint value) internal pure returns (uint){... */\n      swap2\n      swap1\n      pop\n      jump\t// out\n        /* \"contracts/Founds.sol\":2303:2392  function goalCheck() internal view returns (bool) {... */\n    tag_49:\n        /* \"contracts/Founds.sol\":2347:2351  bool */\n      0x00\n        /* \"contracts/Founds.sol\":2380:2384  goal */\n      sload(0x02)\n        /* \"contracts/Founds.sol\":2371:2376  saldo */\n      sload(0x00)\n        /* \"contracts/Founds.sol\":2371:2384  saldo >= goal */\n      lt\n      iszero\n        /* \"contracts/Founds.sol\":2363:2385  return (saldo >= goal) */\n      swap1\n      pop\n        /* \"contracts/Founds.sol\":2303:2392  function goalCheck() internal view returns (bool) {... */\n      swap1\n      jump\t// out\n        /* \"contracts/Founds.sol\":2122:2224  function closeCheck() internal {... */\n    tag_66:\n        /* \"contracts/Founds.sol\":2167:2178  goalCheck() */\n      tag_72\n        /* \"contracts/Founds.sol\":2167:2176  goalCheck */\n      tag_49\n        /* \"contracts/Founds.sol\":2167:2178  goalCheck() */\n      jump\t// in\n    tag_72:\n        /* \"contracts/Founds.sol\":2163:2218  if (goalCheck()) {... */\n      iszero\n      tag_73\n      jumpi\n        /* \"contracts/Founds.sol\":2203:2207  true */\n      0x01\n        /* \"contracts/Founds.sol\":2194:2200  closed */\n      0x05\n      0x00\n        /* \"contracts/Founds.sol\":2194:2207  closed = true */\n      0x0100\n      exp\n      dup2\n      sload\n      dup2\n      0xff\n      mul\n      not\n      and\n      swap1\n      dup4\n      iszero\n      iszero\n      mul\n      or\n      swap1\n      sstore\n      pop\n        /* \"contracts/Founds.sol\":2163:2218  if (goalCheck()) {... */\n    tag_73:\n        /* \"contracts/Founds.sol\":2122:2224  function closeCheck() internal {... */\n      jump\t// out\n        /* \"#utility.yul\":7:84   */\n    tag_74:\n        /* \"#utility.yul\":44:51   */\n      0x00\n        /* \"#utility.yul\":73:78   */\n      dup2\n        /* \"#utility.yul\":62:78   */\n      swap1\n      pop\n        /* \"#utility.yul\":7:84   */\n      swap2\n      swap1\n      pop\n      jump\t// out\n        /* \"#utility.yul\":90:208   */\n    tag_75:\n        /* \"#utility.yul\":177:201   */\n      tag_99\n        /* \"#utility.yul\":195:200   */\n      dup2\n        /* \"#utility.yul\":177:201   */\n      tag_74\n      jump\t// in\n    tag_99:\n        /* \"#utility.yul\":172:175   */\n      dup3\n        /* \"#utility.yul\":165:202   */\n      mstore\n        /* \"#utility.yul\":90:208   */\n      pop\n      pop\n      jump\t// out\n        /* \"#utility.yul\":214:436   */\n    tag_11:\n        /* \"#utility.yul\":307:311   */\n      0x00\n        /* \"#utility.yul\":345:347   */\n      0x20\n        /* \"#utility.yul\":334:343   */\n      dup3\n        /* \"#utility.yul\":330:348   */\n      add\n        /* \"#utility.yul\":322:348   */\n      swap1\n      pop\n        /* \"#utility.yul\":358:429   */\n      tag_101\n        /* \"#utility.yul\":426:427   */\n      0x00\n        /* \"#utility.yul\":415:424   */\n      dup4\n        /* \"#utility.yul\":411:428   */\n      add\n        /* \"#utility.yul\":402:408   */\n      dup5\n        /* \"#utility.yul\":358:429   */\n      tag_75\n      jump\t// in\n    tag_101:\n        /* \"#utility.yul\":214:436   */\n      swap3\n      swap2\n      pop\n      pop\n      jump\t// out\n        /* \"#utility.yul\":523:640   */\n    tag_77:\n        /* \"#utility.yul\":632:633   */\n      0x00\n        /* \"#utility.yul\":629:630   */\n      dup1\n        /* \"#utility.yul\":622:634   */\n      revert\n        /* \"#utility.yul\":769:891   */\n    tag_79:\n        /* \"#utility.yul\":842:866   */\n      tag_106\n        /* \"#utility.yul\":860:865   */\n      dup2\n        /* \"#utility.yul\":842:866   */\n      tag_74\n      jump\t// in\n    tag_106:\n        /* \"#utility.yul\":835:840   */\n      dup2\n        /* \"#utility.yul\":832:867   */\n      eq\n        /* \"#utility.yul\":822:885   */\n      tag_107\n      jumpi\n        /* \"#utility.yul\":881:882   */\n      0x00\n        /* \"#utility.yul\":878:879   */\n      dup1\n        /* \"#utility.yul\":871:883   */\n      revert\n        /* \"#utility.yul\":822:885   */\n    tag_107:\n        /* \"#utility.yul\":769:891   */\n      pop\n      jump\t// out\n        /* \"#utility.yul\":897:1036   */\n    tag_80:\n        /* \"#utility.yul\":943:948   */\n      0x00\n        /* \"#utility.yul\":981:987   */\n      dup2\n        /* \"#utility.yul\":968:988   */\n      calldataload\n        /* \"#utility.yul\":959:988   */\n      swap1\n      pop\n        /* \"#utility.yul\":997:1030   */\n      tag_109\n        /* \"#utility.yul\":1024:1029   */\n      dup2\n        /* \"#utility.yul\":997:1030   */\n      tag_79\n      jump\t// in\n    tag_109:\n        /* \"#utility.yul\":897:1036   */\n      swap3\n      swap2\n      pop\n      pop\n      jump\t// out\n        /* \"#utility.yul\":1042:1371   */\n    tag_18:\n        /* \"#utility.yul\":1101:1107   */\n      0x00\n        /* \"#utility.yul\":1150:1152   */\n      0x20\n        /* \"#utility.yul\":1138:1147   */\n      dup3\n        /* \"#utility.yul\":1129:1136   */\n      dup5\n        /* \"#utility.yul\":1125:1148   */\n      sub\n        /* \"#utility.yul\":1121:1153   */\n      slt\n        /* \"#utility.yul\":1118:1237   */\n      iszero\n      tag_111\n      jumpi\n        /* \"#utility.yul\":1156:1235   */\n      tag_112\n      tag_77\n      jump\t// in\n    tag_112:\n        /* \"#utility.yul\":1118:1237   */\n    tag_111:\n        /* \"#utility.yul\":1276:1277   */\n      0x00\n        /* \"#utility.yul\":1301:1354   */\n      tag_113\n        /* \"#utility.yul\":1346:1353   */\n      dup5\n        /* \"#utility.yul\":1337:1343   */\n      dup3\n        /* \"#utility.yul\":1326:1335   */\n      dup6\n        /* \"#utility.yul\":1322:1344   */\n      add\n        /* \"#utility.yul\":1301:1354   */\n      tag_80\n      jump\t// in\n    tag_113:\n        /* \"#utility.yul\":1291:1354   */\n      swap2\n      pop\n        /* \"#utility.yul\":1247:1364   */\n      pop\n        /* \"#utility.yul\":1042:1371   */\n      swap3\n      swap2\n      pop\n      pop\n      jump\t// out\n        /* \"#utility.yul\":1377:1546   */\n    tag_81:\n        /* \"#utility.yul\":1461:1472   */\n      0x00\n        /* \"#utility.yul\":1495:1501   */\n      dup3\n        /* \"#utility.yul\":1490:1493   */\n      dup3\n        /* \"#utility.yul\":1483:1502   */\n      mstore\n        /* \"#utility.yul\":1535:1539   */\n      0x20\n        /* \"#utility.yul\":1530:1533   */\n      dup3\n        /* \"#utility.yul\":1526:1540   */\n      add\n        /* \"#utility.yul\":1511:1540   */\n      swap1\n      pop\n        /* \"#utility.yul\":1377:1546   */\n      swap3\n      swap2\n      pop\n      pop\n      jump\t// out\n        /* \"#utility.yul\":1552:1722   */\n    tag_82:\n        /* \"#utility.yul\":1692:1714   */\n      0x596f75277265206e6f7420746865206f776e6572000000000000000000000000\n        /* \"#utility.yul\":1688:1689   */\n      0x00\n        /* \"#utility.yul\":1680:1686   */\n      dup3\n        /* \"#utility.yul\":1676:1690   */\n      add\n        /* \"#utility.yul\":1669:1715   */\n      mstore\n        /* \"#utility.yul\":1552:1722   */\n      pop\n      jump\t// out\n        /* \"#utility.yul\":1728:2094   */\n    tag_83:\n        /* \"#utility.yul\":1870:1873   */\n      0x00\n        /* \"#utility.yul\":1891:1958   */\n      tag_117\n        /* \"#utility.yul\":1955:1957   */\n      0x14\n        /* \"#utility.yul\":1950:1953   */\n      dup4\n        /* \"#utility.yul\":1891:1958   */\n      tag_81\n      jump\t// in\n    tag_117:\n        /* \"#utility.yul\":1884:1958   */\n      swap2\n      pop\n        /* \"#utility.yul\":1967:2060   */\n      tag_118\n        /* \"#utility.yul\":2056:2059   */\n      dup3\n        /* \"#utility.yul\":1967:2060   */\n      tag_82\n      jump\t// in\n    tag_118:\n        /* \"#utility.yul\":2085:2087   */\n      0x20\n        /* \"#utility.yul\":2080:2083   */\n      dup3\n        /* \"#utility.yul\":2076:2088   */\n      add\n        /* \"#utility.yul\":2069:2088   */\n      swap1\n      pop\n        /* \"#utility.yul\":1728:2094   */\n      swap2\n      swap1\n      pop\n      jump\t// out\n        /* \"#utility.yul\":2100:2519   */\n    tag_29:\n        /* \"#utility.yul\":2266:2270   */\n      0x00\n        /* \"#utility.yul\":2304:2306   */\n      0x20\n        /* \"#utility.yul\":2293:2302   */\n      dup3\n        /* \"#utility.yul\":2289:2307   */\n      add\n        /* \"#utility.yul\":2281:2307   */\n      swap1\n      pop\n        /* \"#utility.yul\":2353:2362   */\n      dup2\n        /* \"#utility.yul\":2347:2351   */\n      dup2\n        /* \"#utility.yul\":2343:2363   */\n      sub\n        /* \"#utility.yul\":2339:2340   */\n      0x00\n        /* \"#utility.yul\":2328:2337   */\n      dup4\n        /* \"#utility.yul\":2324:2341   */\n      add\n        /* \"#utility.yul\":2317:2364   */\n      mstore\n        /* \"#utility.yul\":2381:2512   */\n      tag_120\n        /* \"#utility.yul\":2507:2511   */\n      dup2\n        /* \"#utility.yul\":2381:2512   */\n      tag_83\n      jump\t// in\n    tag_120:\n        /* \"#utility.yul\":2373:2512   */\n      swap1\n      pop\n        /* \"#utility.yul\":2100:2519   */\n      swap2\n      swap1\n      pop\n      jump\t// out\n        /* \"#utility.yul\":2525:2694   */\n    tag_84:\n        /* \"#utility.yul\":2665:2686   */\n      0x53616c646f206973206e6f7420656e6f75676800000000000000000000000000\n        /* \"#utility.yul\":2661:2662   */\n      0x00\n        /* \"#utility.yul\":2653:2659   */\n      dup3\n        /* \"#utility.yul\":2649:2663   */\n      add\n        /* \"#utility.yul\":2642:2687   */\n      mstore\n        /* \"#utility.yul\":2525:2694   */\n      pop\n      jump\t// out\n        /* \"#utility.yul\":2700:3066   */\n    tag_85:\n        /* \"#utility.yul\":2842:2845   */\n      0x00\n        /* \"#utility.yul\":2863:2930   */\n      tag_123\n        /* \"#utility.yul\":2927:2929   */\n      0x13\n        /* \"#utility.yul\":2922:2925   */\n      dup4\n        /* \"#utility.yul\":2863:2930   */\n      tag_81\n      jump\t// in\n    tag_123:\n        /* \"#utility.yul\":2856:2930   */\n      swap2\n      pop\n        /* \"#utility.yul\":2939:3032   */\n      tag_124\n        /* \"#utility.yul\":3028:3031   */\n      dup3\n        /* \"#utility.yul\":2939:3032   */\n      tag_84\n      jump\t// in\n    tag_124:\n        /* \"#utility.yul\":3057:3059   */\n      0x20\n        /* \"#utility.yul\":3052:3055   */\n      dup3\n        /* \"#utility.yul\":3048:3060   */\n      add\n        /* \"#utility.yul\":3041:3060   */\n      swap1\n      pop\n        /* \"#utility.yul\":2700:3066   */\n      swap2\n      swap1\n      pop\n      jump\t// out\n        /* \"#utility.yul\":3072:3491   */\n    tag_35:\n        /* \"#utility.yul\":3238:3242   */\n      0x00\n        /* \"#utility.yul\":3276:3278   */\n      0x20\n        /* \"#utility.yul\":3265:3274   */\n      dup3\n        /* \"#utility.yul\":3261:3279   */\n      add\n        /* \"#utility.yul\":3253:3279   */\n      swap1\n      pop\n        /* \"#utility.yul\":3325:3334   */\n      dup2\n        /* \"#utility.yul\":3319:3323   */\n      dup2\n        /* \"#utility.yul\":3315:3335   */\n      sub\n        /* \"#utility.yul\":3311:3312   */\n      0x00\n        /* \"#utility.yul\":3300:3309   */\n      dup4\n        /* \"#utility.yul\":3296:3313   */\n      add\n        /* \"#utility.yul\":3289:3336   */\n      mstore\n        /* \"#utility.yul\":3353:3484   */\n      tag_126\n        /* \"#utility.yul\":3479:3483   */\n      dup2\n        /* \"#utility.yul\":3353:3484   */\n      tag_85\n      jump\t// in\n    tag_126:\n        /* \"#utility.yul\":3345:3484   */\n      swap1\n      pop\n        /* \"#utility.yul\":3072:3491   */\n      swap2\n      swap1\n      pop\n      jump\t// out\n        /* \"#utility.yul\":3497:3644   */\n    tag_86:\n        /* \"#utility.yul\":3598:3609   */\n      0x00\n        /* \"#utility.yul\":3635:3638   */\n      dup2\n        /* \"#utility.yul\":3620:3638   */\n      swap1\n      pop\n        /* \"#utility.yul\":3497:3644   */\n      swap3\n      swap2\n      pop\n      pop\n      jump\t// out\n        /* \"#utility.yul\":3650:3764   */\n    tag_87:\n      pop\n      jump\t// out\n        /* \"#utility.yul\":3770:4168   */\n    tag_88:\n        /* \"#utility.yul\":3929:3932   */\n      0x00\n        /* \"#utility.yul\":3950:4033   */\n      tag_130\n        /* \"#utility.yul\":4031:4032   */\n      0x00\n        /* \"#utility.yul\":4026:4029   */\n      dup4\n        /* \"#utility.yul\":3950:4033   */\n      tag_86\n      jump\t// in\n    tag_130:\n        /* \"#utility.yul\":3943:4033   */\n      swap2\n      pop\n        /* \"#utility.yul\":4042:4135   */\n      tag_131\n        /* \"#utility.yul\":4131:4134   */\n      dup3\n        /* \"#utility.yul\":4042:4135   */\n      tag_87\n      jump\t// in\n    tag_131:\n        /* \"#utility.yul\":4160:4161   */\n      0x00\n        /* \"#utility.yul\":4155:4158   */\n      dup3\n        /* \"#utility.yul\":4151:4162   */\n      add\n        /* \"#utility.yul\":4144:4162   */\n      swap1\n      pop\n        /* \"#utility.yul\":3770:4168   */\n      swap2\n      swap1\n      pop\n      jump\t// out\n        /* \"#utility.yul\":4174:4553   */\n    tag_39:\n        /* \"#utility.yul\":4358:4361   */\n      0x00\n        /* \"#utility.yul\":4380:4527   */\n      tag_133\n        /* \"#utility.yul\":4523:4526   */\n      dup3\n        /* \"#utility.yul\":4380:4527   */\n      tag_88\n      jump\t// in\n    tag_133:\n        /* \"#utility.yul\":4373:4527   */\n      swap2\n      pop\n        /* \"#utility.yul\":4544:4547   */\n      dup2\n        /* \"#utility.yul\":4537:4547   */\n      swap1\n      pop\n        /* \"#utility.yul\":4174:4553   */\n      swap2\n      swap1\n      pop\n      jump\t// out\n        /* \"#utility.yul\":4559:4720   */\n    tag_89:\n        /* \"#utility.yul\":4699:4712   */\n      0x4661696c65642073656e74000000000000000000000000000000000000000000\n        /* \"#utility.yul\":4695:4696   */\n      0x00\n        /* \"#utility.yul\":4687:4693   */\n      dup3\n        /* \"#utility.yul\":4683:4697   */\n      add\n        /* \"#utility.yul\":4676:4713   */\n      mstore\n        /* \"#utility.yul\":4559:4720   */\n      pop\n      jump\t// out\n        /* \"#utility.yul\":4726:5092   */\n    tag_90:\n        /* \"#utility.yul\":4868:4871   */\n      0x00\n        /* \"#utility.yul\":4889:4956   */\n      tag_136\n        /* \"#utility.yul\":4953:4955   */\n      0x0b\n        /* \"#utility.yul\":4948:4951   */\n      dup4\n        /* \"#utility.yul\":4889:4956   */\n      tag_81\n      jump\t// in\n    tag_136:\n        /* \"#utility.yul\":4882:4956   */\n      swap2\n      pop\n        /* \"#utility.yul\":4965:5058   */\n      tag_137\n        /* \"#utility.yul\":5054:5057   */\n      dup3\n        /* \"#utility.yul\":4965:5058   */\n      tag_89\n      jump\t// in\n    tag_137:\n        /* \"#utility.yul\":5083:5085   */\n      0x20\n        /* \"#utility.yul\":5078:5081   */\n      dup3\n        /* \"#utility.yul\":5074:5086   */\n      add\n        /* \"#utility.yul\":5067:5086   */\n      swap1\n      pop\n        /* \"#utility.yul\":4726:5092   */\n      swap2\n      swap1\n      pop\n      jump\t// out\n        /* \"#utility.yul\":5098:5517   */\n    tag_45:\n        /* \"#utility.yul\":5264:5268   */\n      0x00\n        /* \"#utility.yul\":5302:5304   */\n      0x20\n        /* \"#utility.yul\":5291:5300   */\n      dup3\n        /* \"#utility.yul\":5287:5305   */\n      add\n        /* \"#utility.yul\":5279:5305   */\n      swap1\n      pop\n        /* \"#utility.yul\":5351:5360   */\n      dup2\n        /* \"#utility.yul\":5345:5349   */\n      dup2\n        /* \"#utility.yul\":5341:5361   */\n      sub\n        /* \"#utility.yul\":5337:5338   */\n      0x00\n        /* \"#utility.yul\":5326:5335   */\n      dup4\n        /* \"#utility.yul\":5322:5339   */\n      add\n        /* \"#utility.yul\":5315:5362   */\n      mstore\n        /* \"#utility.yul\":5379:5510   */\n      tag_139\n        /* \"#utility.yul\":5505:5509   */\n      dup2\n        /* \"#utility.yul\":5379:5510   */\n      tag_90\n      jump\t// in\n    tag_139:\n        /* \"#utility.yul\":5371:5510   */\n      swap1\n      pop\n        /* \"#utility.yul\":5098:5517   */\n      swap2\n      swap1\n      pop\n      jump\t// out\n        /* \"#utility.yul\":5523:5703   */\n    tag_91:\n        /* \"#utility.yul\":5571:5648   */\n      0x4e487b7100000000000000000000000000000000000000000000000000000000\n        /* \"#utility.yul\":5568:5569   */\n      0x00\n        /* \"#utility.yul\":5561:5649   */\n      mstore\n        /* \"#utility.yul\":5668:5672   */\n      0x11\n        /* \"#utility.yul\":5665:5666   */\n      0x04\n        /* \"#utility.yul\":5658:5673   */\n      mstore\n        /* \"#utility.yul\":5692:5696   */\n      0x24\n        /* \"#utility.yul\":5689:5690   */\n      0x00\n        /* \"#utility.yul\":5682:5697   */\n      revert\n        /* \"#utility.yul\":5709:5903   */\n    tag_47:\n        /* \"#utility.yul\":5749:5753   */\n      0x00\n        /* \"#utility.yul\":5769:5789   */\n      tag_142\n        /* \"#utility.yul\":5787:5788   */\n      dup3\n        /* \"#utility.yul\":5769:5789   */\n      tag_74\n      jump\t// in\n    tag_142:\n        /* \"#utility.yul\":5764:5789   */\n      swap2\n      pop\n        /* \"#utility.yul\":5803:5823   */\n      tag_143\n        /* \"#utility.yul\":5821:5822   */\n      dup4\n        /* \"#utility.yul\":5803:5823   */\n      tag_74\n      jump\t// in\n    tag_143:\n        /* \"#utility.yul\":5798:5823   */\n      swap3\n      pop\n        /* \"#utility.yul\":5847:5848   */\n      dup3\n        /* \"#utility.yul\":5844:5845   */\n      dup3\n        /* \"#utility.yul\":5840:5849   */\n      sub\n        /* \"#utility.yul\":5832:5849   */\n      swap1\n      pop\n        /* \"#utility.yul\":5871:5872   */\n      dup2\n        /* \"#utility.yul\":5865:5869   */\n      dup2\n        /* \"#utility.yul\":5862:5873   */\n      gt\n        /* \"#utility.yul\":5859:5896   */\n      iszero\n      tag_144\n      jumpi\n        /* \"#utility.yul\":5876:5894   */\n      tag_145\n      tag_91\n      jump\t// in\n    tag_145:\n        /* \"#utility.yul\":5859:5896   */\n    tag_144:\n        /* \"#utility.yul\":5709:5903   */\n      swap3\n      swap2\n      pop\n      pop\n      jump\t// out\n        /* \"#utility.yul\":5909:6068   */\n    tag_92:\n        /* \"#utility.yul\":6049:6060   */\n      0x4e6f74206d6f6e65790000000000000000000000000000000000000000000000\n        /* \"#utility.yul\":6045:6046   */\n      0x00\n        /* \"#utility.yul\":6037:6043   */\n      dup3\n        /* \"#utility.yul\":6033:6047   */\n      add\n        /* \"#utility.yul\":6026:6061   */\n      mstore\n        /* \"#utility.yul\":5909:6068   */\n      pop\n      jump\t// out\n        /* \"#utility.yul\":6074:6439   */\n    tag_93:\n        /* \"#utility.yul\":6216:6219   */\n      0x00\n        /* \"#utility.yul\":6237:6303   */\n      tag_148\n        /* \"#utility.yul\":6301:6302   */\n      0x09\n        /* \"#utility.yul\":6296:6299   */\n      dup4\n        /* \"#utility.yul\":6237:6303   */\n      tag_81\n      jump\t// in\n    tag_148:\n        /* \"#utility.yul\":6230:6303   */\n      swap2\n      pop\n        /* \"#utility.yul\":6312:6405   */\n      tag_149\n        /* \"#utility.yul\":6401:6404   */\n      dup3\n        /* \"#utility.yul\":6312:6405   */\n      tag_92\n      jump\t// in\n    tag_149:\n        /* \"#utility.yul\":6430:6432   */\n      0x20\n        /* \"#utility.yul\":6425:6428   */\n      dup3\n        /* \"#utility.yul\":6421:6433   */\n      add\n        /* \"#utility.yul\":6414:6433   */\n      swap1\n      pop\n        /* \"#utility.yul\":6074:6439   */\n      swap2\n      swap1\n      pop\n      jump\t// out\n        /* \"#utility.yul\":6445:6864   */\n    tag_54:\n        /* \"#utility.yul\":6611:6615   */\n      0x00\n        /* \"#utility.yul\":6649:6651   */\n      0x20\n        /* \"#utility.yul\":6638:6647   */\n      dup3\n        /* \"#utility.yul\":6634:6652   */\n      add\n        /* \"#utility.yul\":6626:6652   */\n      swap1\n      pop\n        /* \"#utility.yul\":6698:6707   */\n      dup2\n        /* \"#utility.yul\":6692:6696   */\n      dup2\n        /* \"#utility.yul\":6688:6708   */\n      sub\n        /* \"#utility.yul\":6684:6685   */\n      0x00\n        /* \"#utility.yul\":6673:6682   */\n      dup4\n        /* \"#utility.yul\":6669:6686   */\n      add\n        /* \"#utility.yul\":6662:6709   */\n      mstore\n        /* \"#utility.yul\":6726:6857   */\n      tag_151\n        /* \"#utility.yul\":6852:6856   */\n      dup2\n        /* \"#utility.yul\":6726:6857   */\n      tag_93\n      jump\t// in\n    tag_151:\n        /* \"#utility.yul\":6718:6857   */\n      swap1\n      pop\n        /* \"#utility.yul\":6445:6864   */\n      swap2\n      swap1\n      pop\n      jump\t// out\n        /* \"#utility.yul\":6870:7090   */\n    tag_94:\n        /* \"#utility.yul\":7010:7044   */\n      0x476f616c20726561636865642c2074686520666f756e6420697320636c6f7365\n        /* \"#utility.yul\":7006:7007   */\n      0x00\n        /* \"#utility.yul\":6998:7004   */\n      dup3\n        /* \"#utility.yul\":6994:7008   */\n      add\n        /* \"#utility.yul\":6987:7045   */\n      mstore\n        /* \"#utility.yul\":7079:7082   */\n      0x6400000000000000000000000000000000000000000000000000000000000000\n        /* \"#utility.yul\":7074:7076   */\n      0x20\n        /* \"#utility.yul\":7066:7072   */\n      dup3\n        /* \"#utility.yul\":7062:7077   */\n      add\n        /* \"#utility.yul\":7055:7083   */\n      mstore\n        /* \"#utility.yul\":6870:7090   */\n      pop\n      jump\t// out\n        /* \"#utility.yul\":7096:7462   */\n    tag_95:\n        /* \"#utility.yul\":7238:7241   */\n      0x00\n        /* \"#utility.yul\":7259:7326   */\n      tag_154\n        /* \"#utility.yul\":7323:7325   */\n      0x21\n        /* \"#utility.yul\":7318:7321   */\n      dup4\n        /* \"#utility.yul\":7259:7326   */\n      tag_81\n      jump\t// in\n    tag_154:\n        /* \"#utility.yul\":7252:7326   */\n      swap2\n      pop\n        /* \"#utility.yul\":7335:7428   */\n      tag_155\n        /* \"#utility.yul\":7424:7427   */\n      dup3\n        /* \"#utility.yul\":7335:7428   */\n      tag_94\n      jump\t// in\n    tag_155:\n        /* \"#utility.yul\":7453:7455   */\n      0x40\n        /* \"#utility.yul\":7448:7451   */\n      dup3\n        /* \"#utility.yul\":7444:7456   */\n      add\n        /* \"#utility.yul\":7437:7456   */\n      swap1\n      pop\n        /* \"#utility.yul\":7096:7462   */\n      swap2\n      swap1\n      pop\n      jump\t// out\n        /* \"#utility.yul\":7468:7887   */\n    tag_58:\n        /* \"#utility.yul\":7634:7638   */\n      0x00\n        /* \"#utility.yul\":7672:7674   */\n      0x20\n        /* \"#utility.yul\":7661:7670   */\n      dup3\n        /* \"#utility.yul\":7657:7675   */\n      add\n        /* \"#utility.yul\":7649:7675   */\n      swap1\n      pop\n        /* \"#utility.yul\":7721:7730   */\n      dup2\n        /* \"#utility.yul\":7715:7719   */\n      dup2\n        /* \"#utility.yul\":7711:7731   */\n      sub\n        /* \"#utility.yul\":7707:7708   */\n      0x00\n        /* \"#utility.yul\":7696:7705   */\n      dup4\n        /* \"#utility.yul\":7692:7709   */\n      add\n        /* \"#utility.yul\":7685:7732   */\n      mstore\n        /* \"#utility.yul\":7749:7880   */\n      tag_157\n        /* \"#utility.yul\":7875:7879   */\n      dup2\n        /* \"#utility.yul\":7749:7880   */\n      tag_95\n      jump\t// in\n    tag_157:\n        /* \"#utility.yul\":7741:7880   */\n      swap1\n      pop\n        /* \"#utility.yul\":7468:7887   */\n      swap2\n      swap1\n      pop\n      jump\t// out\n        /* \"#utility.yul\":7893:8084   */\n    tag_61:\n        /* \"#utility.yul\":7933:7936   */\n      0x00\n        /* \"#utility.yul\":7952:7972   */\n      tag_159\n        /* \"#utility.yul\":7970:7971   */\n      dup3\n        /* \"#utility.yul\":7952:7972   */\n      tag_74\n      jump\t// in\n    tag_159:\n        /* \"#utility.yul\":7947:7972   */\n      swap2\n      pop\n        /* \"#utility.yul\":7986:8006   */\n      tag_160\n        /* \"#utility.yul\":8004:8005   */\n      dup4\n        /* \"#utility.yul\":7986:8006   */\n      tag_74\n      jump\t// in\n    tag_160:\n        /* \"#utility.yul\":7981:8006   */\n      swap3\n      pop\n        /* \"#utility.yul\":8029:8030   */\n      dup3\n        /* \"#utility.yul\":8026:8027   */\n      dup3\n        /* \"#utility.yul\":8022:8031   */\n      add\n        /* \"#utility.yul\":8015:8031   */\n      swap1\n      pop\n        /* \"#utility.yul\":8050:8053   */\n      dup1\n        /* \"#utility.yul\":8047:8048   */\n      dup3\n        /* \"#utility.yul\":8044:8054   */\n      gt\n        /* \"#utility.yul\":8041:8077   */\n      iszero\n      tag_161\n      jumpi\n        /* \"#utility.yul\":8057:8075   */\n      tag_162\n      tag_91\n      jump\t// in\n    tag_162:\n        /* \"#utility.yul\":8041:8077   */\n    tag_161:\n        /* \"#utility.yul\":7893:8084   */\n      swap3\n      swap2\n      pop\n      pop\n      jump\t// out\n        /* \"#utility.yul\":8090:8323   */\n    tag_64:\n        /* \"#utility.yul\":8129:8132   */\n      0x00\n        /* \"#utility.yul\":8152:8176   */\n      tag_164\n        /* \"#utility.yul\":8170:8175   */\n      dup3\n        /* \"#utility.yul\":8152:8176   */\n      tag_74\n      jump\t// in\n    tag_164:\n        /* \"#utility.yul\":8143:8176   */\n      swap2\n      pop\n        /* \"#utility.yul\":8198:8264   */\n      0xffffffffffffffffffffffffffffffffffffffffffffffffffffffffffffffff\n        /* \"#utility.yul\":8191:8196   */\n      dup3\n        /* \"#utility.yul\":8188:8265   */\n      sub\n        /* \"#utility.yul\":8185:8288   */\n      tag_165\n      jumpi\n        /* \"#utility.yul\":8268:8286   */\n      tag_166\n      tag_91\n      jump\t// in\n    tag_166:\n        /* \"#utility.yul\":8185:8288   */\n    tag_165:\n        /* \"#utility.yul\":8315:8316   */\n      0x01\n        /* \"#utility.yul\":8308:8313   */\n      dup3\n        /* \"#utility.yul\":8304:8317   */\n      add\n        /* \"#utility.yul\":8297:8317   */\n      swap1\n      pop\n        /* \"#utility.yul\":8090:8323   */\n      swap2\n      swap1\n      pop\n      jump\t// out\n        /* \"#utility.yul\":8329:8739   */\n    tag_69:\n        /* \"#utility.yul\":8369:8376   */\n      0x00\n        /* \"#utility.yul\":8392:8412   */\n      tag_168\n        /* \"#utility.yul\":8410:8411   */\n      dup3\n        /* \"#utility.yul\":8392:8412   */\n      tag_74\n      jump\t// in\n    tag_168:\n        /* \"#utility.yul\":8387:8412   */\n      swap2\n      pop\n        /* \"#utility.yul\":8426:8446   */\n      tag_169\n        /* \"#utility.yul\":8444:8445   */\n      dup4\n        /* \"#utility.yul\":8426:8446   */\n      tag_74\n      jump\t// in\n    tag_169:\n        /* \"#utility.yul\":8421:8446   */\n      swap3\n      pop\n        /* \"#utility.yul\":8481:8482   */\n      dup3\n        /* \"#utility.yul\":8478:8479   */\n      dup3\n        /* \"#utility.yul\":8474:8483   */\n      mul\n        /* \"#utility.yul\":8503:8533   */\n      tag_170\n        /* \"#utility.yul\":8521:8532   */\n      dup2\n        /* \"#utility.yul\":8503:8533   */\n      tag_74\n      jump\t// in\n    tag_170:\n        /* \"#utility.yul\":8492:8533   */\n      swap2\n      pop\n        /* \"#utility.yul\":8682:8683   */\n      dup3\n        /* \"#utility.yul\":8673:8680   */\n      dup3\n        /* \"#utility.yul\":8669:8684   */\n      div\n        /* \"#utility.yul\":8666:8667   */\n      dup5\n        /* \"#utility.yul\":8663:8685   */\n      eq\n        /* \"#utility.yul\":8643:8644   */\n      dup4\n        /* \"#utility.yul\":8636:8645   */\n      iszero\n        /* \"#utility.yul\":8616:8699   */\n      or\n        /* \"#utility.yul\":8593:8732   */\n      tag_171\n      jumpi\n        /* \"#utility.yul\":8712:8730   */\n      tag_172\n      tag_91\n      jump\t// in\n    tag_172:\n        /* \"#utility.yul\":8593:8732   */\n    tag_171:\n        /* \"#utility.yul\":8377:8739   */\n      pop\n        /* \"#utility.yul\":8329:8739   */\n      swap3\n      swap2\n      pop\n      pop\n      jump\t// out\n\n    auxdata: 0xa26469706673582212206caf67169344d88cba4f9fc6a63ad23b6e83ca5b5580bcda3e5b38eba61453cd64736f6c63430008110033\n}\n",
				"bytecode": {
					"linkReferences": {},
					"object": "60806040526000805560006003556000600560006101000a81548160ff0219169083151502179055503480156200003557600080fd5b5060405162000b3238038062000b3283398181016040528101906200005b919062000119565b33600160006101000a81548173ffffffffffffffffffffffffffffffffffffffff021916908373ffffffffffffffffffffffffffffffffffffffff160217905550620000ad81620000ba60201b60201c565b60028190555050620001c5565b6000670de0b6b3a764000082620000d291906200017a565b9050919050565b600080fd5b6000819050919050565b620000f381620000de565b8114620000ff57600080fd5b50565b6000815190506200011381620000e8565b92915050565b600060208284031215620001325762000131620000d9565b5b6000620001428482850162000102565b91505092915050565b7f4e487b7100000000000000000000000000000000000000000000000000000000600052601160045260246000fd5b60006200018782620000de565b91506200019483620000de565b9250828202620001a481620000de565b91508282048414831517620001be57620001bd6200014b565b5b5092915050565b61095d80620001d56000396000f3fe60806040526004361061004a5760003560e01c8063401938831461004f57806348f0dc421461007a5780634fd9efc4146100a5578063a41de865146100c1578063ed88c68e146100ec575b600080fd5b34801561005b57600080fd5b506100646100f6565b60405161007191906104f4565b60405180910390f35b34801561008657600080fd5b5061008f6100fc565b60405161009c91906104f4565b60405180910390f35b6100bf60048036038101906100ba9190610540565b610102565b005b3480156100cd57600080fd5b506100d6610301565b6040516100e391906104f4565b60405180910390f35b6100f4610307565b005b60025481565b60035481565b3373ffffffffffffffffffffffffffffffffffffffff16600160009054906101000a900473ffffffffffffffffffffffffffffffffffffffff1673ffffffffffffffffffffffffffffffffffffffff1614610192576040517f08c379a0000000000000000000000000000000000000000000000000000000008152600401610189906105ca565b60405180910390fd5b8061019c81610484565b60005410156101e0576040517f08c379a00000000000000000000000000000000000000000000000000000000081526004016101d790610636565b60405180910390fd5b60006101eb83610484565b90506000600160009054906101000a900473ffffffffffffffffffffffffffffffffffffffff1673ffffffffffffffffffffffffffffffffffffffff168260405161023590610687565b60006040518083038185875af1925050503d8060008114610272576040519150601f19603f3d011682016040523d82523d6000602084013e610277565b606091505b50509050806102bb576040517f08c379a00000000000000000000000000000000000000000000000000000000081526004016102b2906106e8565b60405180910390fd5b816000808282546102cc9190610737565b925050819055506102db6104a1565b6102fb576000600560006101000a81548160ff0219169083151502179055505b50505050565b60005481565b6000341161034a576040517f08c379a0000000000000000000000000000000000000000000000000000000008152600401610341906107b7565b60405180910390fd5b60001515600560009054906101000a900460ff161515146103a0576040517f08c379a000000000000000000000000000000000000000000000000000000000815260040161039790610849565b60405180910390fd5b346000808282546103b19190610869565b92505081905550600460003373ffffffffffffffffffffffffffffffffffffffff1673ffffffffffffffffffffffffffffffffffffffff16815260200190815260200160002060009054906101000a900460ff1661047a576001600460003373ffffffffffffffffffffffffffffffffffffffff1673ffffffffffffffffffffffffffffffffffffffff16815260200190815260200160002060006101000a81548160ff021916908315150217905550600360008154809291906104749061089d565b91905055505b6104826104b0565b565b6000670de0b6b3a76400008261049a91906108e5565b9050919050565b60006002546000541015905090565b6104b86104a1565b156104d9576001600560006101000a81548160ff0219169083151502179055505b565b6000819050919050565b6104ee816104db565b82525050565b600060208201905061050960008301846104e5565b92915050565b600080fd5b61051d816104db565b811461052857600080fd5b50565b60008135905061053a81610514565b92915050565b6000602082840312156105565761055561050f565b5b60006105648482850161052b565b91505092915050565b600082825260208201905092915050565b7f596f75277265206e6f7420746865206f776e6572000000000000000000000000600082015250565b60006105b460148361056d565b91506105bf8261057e565b602082019050919050565b600060208201905081810360008301526105e3816105a7565b9050919050565b7f53616c646f206973206e6f7420656e6f75676800000000000000000000000000600082015250565b600061062060138361056d565b915061062b826105ea565b602082019050919050565b6000602082019050818103600083015261064f81610613565b9050919050565b600081905092915050565b50565b6000610671600083610656565b915061067c82610661565b600082019050919050565b600061069282610664565b9150819050919050565b7f4661696c65642073656e74000000000000000000000000000000000000000000600082015250565b60006106d2600b8361056d565b91506106dd8261069c565b602082019050919050565b60006020820190508181036000830152610701816106c5565b9050919050565b7f4e487b7100000000000000000000000000000000000000000000000000000000600052601160045260246000fd5b6000610742826104db565b915061074d836104db565b925082820390508181111561076557610764610708565b5b92915050565b7f4e6f74206d6f6e65790000000000000000000000000000000000000000000000600082015250565b60006107a160098361056d565b91506107ac8261076b565b602082019050919050565b600060208201905081810360008301526107d081610794565b9050919050565b7f476f616c20726561636865642c2074686520666f756e6420697320636c6f736560008201527f6400000000000000000000000000000000000000000000000000000000000000602082015250565b600061083360218361056d565b915061083e826107d7565b604082019050919050565b6000602082019050818103600083015261086281610826565b9050919050565b6000610874826104db565b915061087f836104db565b925082820190508082111561089757610896610708565b5b92915050565b60006108a8826104db565b91507fffffffffffffffffffffffffffffffffffffffffffffffffffffffffffffffff82036108da576108d9610708565b5b600182019050919050565b60006108f0826104db565b91506108fb836104db565b9250828202610909816104db565b915082820484148315176109205761091f610708565b5b509291505056fea26469706673582212206caf67169344d88cba4f9fc6a63ad23b6e83ca5b5580bcda3e5b38eba61453cd64736f6c63430008110033",
					"opcodes": "PUSH1 0x80 PUSH1 0x40 MSTORE PUSH1 0x0 DUP1 SSTORE PUSH1 0x0 PUSH1 0x3 SSTORE PUSH1 0x0 PUSH1 0x5 PUSH1 0x0 PUSH2 0x100 EXP DUP2 SLOAD DUP2 PUSH1 0xFF MUL NOT AND SWAP1 DUP4 ISZERO ISZERO MUL OR SWAP1 SSTORE POP CALLVALUE DUP1 ISZERO PUSH3 0x35 JUMPI PUSH1 0x0 DUP1 REVERT JUMPDEST POP PUSH1 0x40 MLOAD PUSH3 0xB32 CODESIZE SUB DUP1 PUSH3 0xB32 DUP4 CODECOPY DUP2 DUP2 ADD PUSH1 0x40 MSTORE DUP2 ADD SWAP1 PUSH3 0x5B SWAP2 SWAP1 PUSH3 0x119 JUMP JUMPDEST CALLER PUSH1 0x1 PUSH1 0x0 PUSH2 0x100 EXP DUP2 SLOAD DUP2 PUSH20 0xFFFFFFFFFFFFFFFFFFFFFFFFFFFFFFFFFFFFFFFF MUL NOT AND SWAP1 DUP4 PUSH20 0xFFFFFFFFFFFFFFFFFFFFFFFFFFFFFFFFFFFFFFFF AND MUL OR SWAP1 SSTORE POP PUSH3 0xAD DUP2 PUSH3 0xBA PUSH1 0x20 SHL PUSH1 0x20 SHR JUMP JUMPDEST PUSH1 0x2 DUP2 SWAP1 SSTORE POP POP PUSH3 0x1C5 JUMP JUMPDEST PUSH1 0x0 PUSH8 0xDE0B6B3A7640000 DUP3 PUSH3 0xD2 SWAP2 SWAP1 PUSH3 0x17A JUMP JUMPDEST SWAP1 POP SWAP2 SWAP1 POP JUMP JUMPDEST PUSH1 0x0 DUP1 REVERT JUMPDEST PUSH1 0x0 DUP2 SWAP1 POP SWAP2 SWAP1 POP JUMP JUMPDEST PUSH3 0xF3 DUP2 PUSH3 0xDE JUMP JUMPDEST DUP2 EQ PUSH3 0xFF JUMPI PUSH1 0x0 DUP1 REVERT JUMPDEST POP JUMP JUMPDEST PUSH1 0x0 DUP2 MLOAD SWAP1 POP PUSH3 0x113 DUP2 PUSH3 0xE8 JUMP JUMPDEST SWAP3 SWAP2 POP POP JUMP JUMPDEST PUSH1 0x0 PUSH1 0x20 DUP3 DUP5 SUB SLT ISZERO PUSH3 0x132 JUMPI PUSH3 0x131 PUSH3 0xD9 JUMP JUMPDEST JUMPDEST PUSH1 0x0 PUSH3 0x142 DUP5 DUP3 DUP6 ADD PUSH3 0x102 JUMP JUMPDEST SWAP2 POP POP SWAP3 SWAP2 POP POP JUMP JUMPDEST PUSH32 0x4E487B7100000000000000000000000000000000000000000000000000000000 PUSH1 0x0 MSTORE PUSH1 0x11 PUSH1 0x4 MSTORE PUSH1 0x24 PUSH1 0x0 REVERT JUMPDEST PUSH1 0x0 PUSH3 0x187 DUP3 PUSH3 0xDE JUMP JUMPDEST SWAP2 POP PUSH3 0x194 DUP4 PUSH3 0xDE JUMP JUMPDEST SWAP3 POP DUP3 DUP3 MUL PUSH3 0x1A4 DUP2 PUSH3 0xDE JUMP JUMPDEST SWAP2 POP DUP3 DUP3 DIV DUP5 EQ DUP4 ISZERO OR PUSH3 0x1BE JUMPI PUSH3 0x1BD PUSH3 0x14B JUMP JUMPDEST JUMPDEST POP SWAP3 SWAP2 POP POP JUMP JUMPDEST PUSH2 0x95D DUP1 PUSH3 0x1D5 PUSH1 0x0 CODECOPY PUSH1 0x0 RETURN INVALID PUSH1 0x80 PUSH1 0x40 MSTORE PUSH1 0x4 CALLDATASIZE LT PUSH2 0x4A JUMPI PUSH1 0x0 CALLDATALOAD PUSH1 0xE0 SHR DUP1 PUSH4 0x40193883 EQ PUSH2 0x4F JUMPI DUP1 PUSH4 0x48F0DC42 EQ PUSH2 0x7A JUMPI DUP1 PUSH4 0x4FD9EFC4 EQ PUSH2 0xA5 JUMPI DUP1 PUSH4 0xA41DE865 EQ PUSH2 0xC1 JUMPI DUP1 PUSH4 0xED88C68E EQ PUSH2 0xEC JUMPI JUMPDEST PUSH1 0x0 DUP1 REVERT JUMPDEST CALLVALUE DUP1 ISZERO PUSH2 0x5B JUMPI PUSH1 0x0 DUP1 REVERT JUMPDEST POP PUSH2 0x64 PUSH2 0xF6 JUMP JUMPDEST PUSH1 0x40 MLOAD PUSH2 0x71 SWAP2 SWAP1 PUSH2 0x4F4 JUMP JUMPDEST PUSH1 0x40 MLOAD DUP1 SWAP2 SUB SWAP1 RETURN JUMPDEST CALLVALUE DUP1 ISZERO PUSH2 0x86 JUMPI PUSH1 0x0 DUP1 REVERT JUMPDEST POP PUSH2 0x8F PUSH2 0xFC JUMP JUMPDEST PUSH1 0x40 MLOAD PUSH2 0x9C SWAP2 SWAP1 PUSH2 0x4F4 JUMP JUMPDEST PUSH1 0x40 MLOAD DUP1 SWAP2 SUB SWAP1 RETURN JUMPDEST PUSH2 0xBF PUSH1 0x4 DUP1 CALLDATASIZE SUB DUP2 ADD SWAP1 PUSH2 0xBA SWAP2 SWAP1 PUSH2 0x540 JUMP JUMPDEST PUSH2 0x102 JUMP JUMPDEST STOP JUMPDEST CALLVALUE DUP1 ISZERO PUSH2 0xCD JUMPI PUSH1 0x0 DUP1 REVERT JUMPDEST POP PUSH2 0xD6 PUSH2 0x301 JUMP JUMPDEST PUSH1 0x40 MLOAD PUSH2 0xE3 SWAP2 SWAP1 PUSH2 0x4F4 JUMP JUMPDEST PUSH1 0x40 MLOAD DUP1 SWAP2 SUB SWAP1 RETURN JUMPDEST PUSH2 0xF4 PUSH2 0x307 JUMP JUMPDEST STOP JUMPDEST PUSH1 0x2 SLOAD DUP2 JUMP JUMPDEST PUSH1 0x3 SLOAD DUP2 JUMP JUMPDEST CALLER PUSH20 0xFFFFFFFFFFFFFFFFFFFFFFFFFFFFFFFFFFFFFFFF AND PUSH1 0x1 PUSH1 0x0 SWAP1 SLOAD SWAP1 PUSH2 0x100 EXP SWAP1 DIV PUSH20 0xFFFFFFFFFFFFFFFFFFFFFFFFFFFFFFFFFFFFFFFF AND PUSH20 0xFFFFFFFFFFFFFFFFFFFFFFFFFFFFFFFFFFFFFFFF AND EQ PUSH2 0x192 JUMPI PUSH1 0x40 MLOAD PUSH32 0x8C379A000000000000000000000000000000000000000000000000000000000 DUP2 MSTORE PUSH1 0x4 ADD PUSH2 0x189 SWAP1 PUSH2 0x5CA JUMP JUMPDEST PUSH1 0x40 MLOAD DUP1 SWAP2 SUB SWAP1 REVERT JUMPDEST DUP1 PUSH2 0x19C DUP2 PUSH2 0x484 JUMP JUMPDEST PUSH1 0x0 SLOAD LT ISZERO PUSH2 0x1E0 JUMPI PUSH1 0x40 MLOAD PUSH32 0x8C379A000000000000000000000000000000000000000000000000000000000 DUP2 MSTORE PUSH1 0x4 ADD PUSH2 0x1D7 SWAP1 PUSH2 0x636 JUMP JUMPDEST PUSH1 0x40 MLOAD DUP1 SWAP2 SUB SWAP1 REVERT JUMPDEST PUSH1 0x0 PUSH2 0x1EB DUP4 PUSH2 0x484 JUMP JUMPDEST SWAP1 POP PUSH1 0x0 PUSH1 0x1 PUSH1 0x0 SWAP1 SLOAD SWAP1 PUSH2 0x100 EXP SWAP1 DIV PUSH20 0xFFFFFFFFFFFFFFFFFFFFFFFFFFFFFFFFFFFFFFFF AND PUSH20 0xFFFFFFFFFFFFFFFFFFFFFFFFFFFFFFFFFFFFFFFF AND DUP3 PUSH1 0x40 MLOAD PUSH2 0x235 SWAP1 PUSH2 0x687 JUMP JUMPDEST PUSH1 0x0 PUSH1 0x40 MLOAD DUP1 DUP4 SUB DUP2 DUP6 DUP8 GAS CALL SWAP3 POP POP POP RETURNDATASIZE DUP1 PUSH1 0x0 DUP2 EQ PUSH2 0x272 JUMPI PUSH1 0x40 MLOAD SWAP2 POP PUSH1 0x1F NOT PUSH1 0x3F RETURNDATASIZE ADD AND DUP3 ADD PUSH1 0x40 MSTORE RETURNDATASIZE DUP3 MSTORE RETURNDATASIZE PUSH1 0x0 PUSH1 0x20 DUP5 ADD RETURNDATACOPY PUSH2 0x277 JUMP JUMPDEST PUSH1 0x60 SWAP2 POP JUMPDEST POP POP SWAP1 POP DUP1 PUSH2 0x2BB JUMPI PUSH1 0x40 MLOAD PUSH32 0x8C379A000000000000000000000000000000000000000000000000000000000 DUP2 MSTORE PUSH1 0x4 ADD PUSH2 0x2B2 SWAP1 PUSH2 0x6E8 JUMP JUMPDEST PUSH1 0x40 MLOAD DUP1 SWAP2 SUB SWAP1 REVERT JUMPDEST DUP2 PUSH1 0x0 DUP1 DUP3 DUP3 SLOAD PUSH2 0x2CC SWAP2 SWAP1 PUSH2 0x737 JUMP JUMPDEST SWAP3 POP POP DUP2 SWAP1 SSTORE POP PUSH2 0x2DB PUSH2 0x4A1 JUMP JUMPDEST PUSH2 0x2FB JUMPI PUSH1 0x0 PUSH1 0x5 PUSH1 0x0 PUSH2 0x100 EXP DUP2 SLOAD DUP2 PUSH1 0xFF MUL NOT AND SWAP1 DUP4 ISZERO ISZERO MUL OR SWAP1 SSTORE POP JUMPDEST POP POP POP POP JUMP JUMPDEST PUSH1 0x0 SLOAD DUP2 JUMP JUMPDEST PUSH1 0x0 CALLVALUE GT PUSH2 0x34A JUMPI PUSH1 0x40 MLOAD PUSH32 0x8C379A000000000000000000000000000000000000000000000000000000000 DUP2 MSTORE PUSH1 0x4 ADD PUSH2 0x341 SWAP1 PUSH2 0x7B7 JUMP JUMPDEST PUSH1 0x40 MLOAD DUP1 SWAP2 SUB SWAP1 REVERT JUMPDEST PUSH1 0x0 ISZERO ISZERO PUSH1 0x5 PUSH1 0x0 SWAP1 SLOAD SWAP1 PUSH2 0x100 EXP SWAP1 DIV PUSH1 0xFF AND ISZERO ISZERO EQ PUSH2 0x3A0 JUMPI PUSH1 0x40 MLOAD PUSH32 0x8C379A000000000000000000000000000000000000000000000000000000000 DUP2 MSTORE PUSH1 0x4 ADD PUSH2 0x397 SWAP1 PUSH2 0x849 JUMP JUMPDEST PUSH1 0x40 MLOAD DUP1 SWAP2 SUB SWAP1 REVERT JUMPDEST CALLVALUE PUSH1 0x0 DUP1 DUP3 DUP3 SLOAD PUSH2 0x3B1 SWAP2 SWAP1 PUSH2 0x869 JUMP JUMPDEST SWAP3 POP POP DUP2 SWAP1 SSTORE POP PUSH1 0x4 PUSH1 0x0 CALLER PUSH20 0xFFFFFFFFFFFFFFFFFFFFFFFFFFFFFFFFFFFFFFFF AND PUSH20 0xFFFFFFFFFFFFFFFFFFFFFFFFFFFFFFFFFFFFFFFF AND DUP2 MSTORE PUSH1 0x20 ADD SWAP1 DUP2 MSTORE PUSH1 0x20 ADD PUSH1 0x0 KECCAK256 PUSH1 0x0 SWAP1 SLOAD SWAP1 PUSH2 0x100 EXP SWAP1 DIV PUSH1 0xFF AND PUSH2 0x47A JUMPI PUSH1 0x1 PUSH1 0x4 PUSH1 0x0 CALLER PUSH20 0xFFFFFFFFFFFFFFFFFFFFFFFFFFFFFFFFFFFFFFFF AND PUSH20 0xFFFFFFFFFFFFFFFFFFFFFFFFFFFFFFFFFFFFFFFF AND DUP2 MSTORE PUSH1 0x20 ADD SWAP1 DUP2 MSTORE PUSH1 0x20 ADD PUSH1 0x0 KECCAK256 PUSH1 0x0 PUSH2 0x100 EXP DUP2 SLOAD DUP2 PUSH1 0xFF MUL NOT AND SWAP1 DUP4 ISZERO ISZERO MUL OR SWAP1 SSTORE POP PUSH1 0x3 PUSH1 0x0 DUP2 SLOAD DUP1 SWAP3 SWAP2 SWAP1 PUSH2 0x474 SWAP1 PUSH2 0x89D JUMP JUMPDEST SWAP2 SWAP1 POP SSTORE POP JUMPDEST PUSH2 0x482 PUSH2 0x4B0 JUMP JUMPDEST JUMP JUMPDEST PUSH1 0x0 PUSH8 0xDE0B6B3A7640000 DUP3 PUSH2 0x49A SWAP2 SWAP1 PUSH2 0x8E5 JUMP JUMPDEST SWAP1 POP SWAP2 SWAP1 POP JUMP JUMPDEST PUSH1 0x0 PUSH1 0x2 SLOAD PUSH1 0x0 SLOAD LT ISZERO SWAP1 POP SWAP1 JUMP JUMPDEST PUSH2 0x4B8 PUSH2 0x4A1 JUMP JUMPDEST ISZERO PUSH2 0x4D9 JUMPI PUSH1 0x1 PUSH1 0x5 PUSH1 0x0 PUSH2 0x100 EXP DUP2 SLOAD DUP2 PUSH1 0xFF MUL NOT AND SWAP1 DUP4 ISZERO ISZERO MUL OR SWAP1 SSTORE POP JUMPDEST JUMP JUMPDEST PUSH1 0x0 DUP2 SWAP1 POP SWAP2 SWAP1 POP JUMP JUMPDEST PUSH2 0x4EE DUP2 PUSH2 0x4DB JUMP JUMPDEST DUP3 MSTORE POP POP JUMP JUMPDEST PUSH1 0x0 PUSH1 0x20 DUP3 ADD SWAP1 POP PUSH2 0x509 PUSH1 0x0 DUP4 ADD DUP5 PUSH2 0x4E5 JUMP JUMPDEST SWAP3 SWAP2 POP POP JUMP JUMPDEST PUSH1 0x0 DUP1 REVERT JUMPDEST PUSH2 0x51D DUP2 PUSH2 0x4DB JUMP JUMPDEST DUP2 EQ PUSH2 0x528 JUMPI PUSH1 0x0 DUP1 REVERT JUMPDEST POP JUMP JUMPDEST PUSH1 0x0 DUP2 CALLDATALOAD SWAP1 POP PUSH2 0x53A DUP2 PUSH2 0x514 JUMP JUMPDEST SWAP3 SWAP2 POP POP JUMP JUMPDEST PUSH1 0x0 PUSH1 0x20 DUP3 DUP5 SUB SLT ISZERO PUSH2 0x556 JUMPI PUSH2 0x555 PUSH2 0x50F JUMP JUMPDEST JUMPDEST PUSH1 0x0 PUSH2 0x564 DUP5 DUP3 DUP6 ADD PUSH2 0x52B JUMP JUMPDEST SWAP2 POP POP SWAP3 SWAP2 POP POP JUMP JUMPDEST PUSH1 0x0 DUP3 DUP3 MSTORE PUSH1 0x20 DUP3 ADD SWAP1 POP SWAP3 SWAP2 POP POP JUMP JUMPDEST PUSH32 0x596F75277265206E6F7420746865206F776E6572000000000000000000000000 PUSH1 0x0 DUP3 ADD MSTORE POP JUMP JUMPDEST PUSH1 0x0 PUSH2 0x5B4 PUSH1 0x14 DUP4 PUSH2 0x56D JUMP JUMPDEST SWAP2 POP PUSH2 0x5BF DUP3 PUSH2 0x57E JUMP JUMPDEST PUSH1 0x20 DUP3 ADD SWAP1 POP SWAP2 SWAP1 POP JUMP JUMPDEST PUSH1 0x0 PUSH1 0x20 DUP3 ADD SWAP1 POP DUP2 DUP2 SUB PUSH1 0x0 DUP4 ADD MSTORE PUSH2 0x5E3 DUP2 PUSH2 0x5A7 JUMP JUMPDEST SWAP1 POP SWAP2 SWAP1 POP JUMP JUMPDEST PUSH32 0x53616C646F206973206E6F7420656E6F75676800000000000000000000000000 PUSH1 0x0 DUP3 ADD MSTORE POP JUMP JUMPDEST PUSH1 0x0 PUSH2 0x620 PUSH1 0x13 DUP4 PUSH2 0x56D JUMP JUMPDEST SWAP2 POP PUSH2 0x62B DUP3 PUSH2 0x5EA JUMP JUMPDEST PUSH1 0x20 DUP3 ADD SWAP1 POP SWAP2 SWAP1 POP JUMP JUMPDEST PUSH1 0x0 PUSH1 0x20 DUP3 ADD SWAP1 POP DUP2 DUP2 SUB PUSH1 0x0 DUP4 ADD MSTORE PUSH2 0x64F DUP2 PUSH2 0x613 JUMP JUMPDEST SWAP1 POP SWAP2 SWAP1 POP JUMP JUMPDEST PUSH1 0x0 DUP2 SWAP1 POP SWAP3 SWAP2 POP POP JUMP JUMPDEST POP JUMP JUMPDEST PUSH1 0x0 PUSH2 0x671 PUSH1 0x0 DUP4 PUSH2 0x656 JUMP JUMPDEST SWAP2 POP PUSH2 0x67C DUP3 PUSH2 0x661 JUMP JUMPDEST PUSH1 0x0 DUP3 ADD SWAP1 POP SWAP2 SWAP1 POP JUMP JUMPDEST PUSH1 0x0 PUSH2 0x692 DUP3 PUSH2 0x664 JUMP JUMPDEST SWAP2 POP DUP2 SWAP1 POP SWAP2 SWAP1 POP JUMP JUMPDEST PUSH32 0x4661696C65642073656E74000000000000000000000000000000000000000000 PUSH1 0x0 DUP3 ADD MSTORE POP JUMP JUMPDEST PUSH1 0x0 PUSH2 0x6D2 PUSH1 0xB DUP4 PUSH2 0x56D JUMP JUMPDEST SWAP2 POP PUSH2 0x6DD DUP3 PUSH2 0x69C JUMP JUMPDEST PUSH1 0x20 DUP3 ADD SWAP1 POP SWAP2 SWAP1 POP JUMP JUMPDEST PUSH1 0x0 PUSH1 0x20 DUP3 ADD SWAP1 POP DUP2 DUP2 SUB PUSH1 0x0 DUP4 ADD MSTORE PUSH2 0x701 DUP2 PUSH2 0x6C5 JUMP JUMPDEST SWAP1 POP SWAP2 SWAP1 POP JUMP JUMPDEST PUSH32 0x4E487B7100000000000000000000000000000000000000000000000000000000 PUSH1 0x0 MSTORE PUSH1 0x11 PUSH1 0x4 MSTORE PUSH1 0x24 PUSH1 0x0 REVERT JUMPDEST PUSH1 0x0 PUSH2 0x742 DUP3 PUSH2 0x4DB JUMP JUMPDEST SWAP2 POP PUSH2 0x74D DUP4 PUSH2 0x4DB JUMP JUMPDEST SWAP3 POP DUP3 DUP3 SUB SWAP1 POP DUP2 DUP2 GT ISZERO PUSH2 0x765 JUMPI PUSH2 0x764 PUSH2 0x708 JUMP JUMPDEST JUMPDEST SWAP3 SWAP2 POP POP JUMP JUMPDEST PUSH32 0x4E6F74206D6F6E65790000000000000000000000000000000000000000000000 PUSH1 0x0 DUP3 ADD MSTORE POP JUMP JUMPDEST PUSH1 0x0 PUSH2 0x7A1 PUSH1 0x9 DUP4 PUSH2 0x56D JUMP JUMPDEST SWAP2 POP PUSH2 0x7AC DUP3 PUSH2 0x76B JUMP JUMPDEST PUSH1 0x20 DUP3 ADD SWAP1 POP SWAP2 SWAP1 POP JUMP JUMPDEST PUSH1 0x0 PUSH1 0x20 DUP3 ADD SWAP1 POP DUP2 DUP2 SUB PUSH1 0x0 DUP4 ADD MSTORE PUSH2 0x7D0 DUP2 PUSH2 0x794 JUMP JUMPDEST SWAP1 POP SWAP2 SWAP1 POP JUMP JUMPDEST PUSH32 0x476F616C20726561636865642C2074686520666F756E6420697320636C6F7365 PUSH1 0x0 DUP3 ADD MSTORE PUSH32 0x6400000000000000000000000000000000000000000000000000000000000000 PUSH1 0x20 DUP3 ADD MSTORE POP JUMP JUMPDEST PUSH1 0x0 PUSH2 0x833 PUSH1 0x21 DUP4 PUSH2 0x56D JUMP JUMPDEST SWAP2 POP PUSH2 0x83E DUP3 PUSH2 0x7D7 JUMP JUMPDEST PUSH1 0x40 DUP3 ADD SWAP1 POP SWAP2 SWAP1 POP JUMP JUMPDEST PUSH1 0x0 PUSH1 0x20 DUP3 ADD SWAP1 POP DUP2 DUP2 SUB PUSH1 0x0 DUP4 ADD MSTORE PUSH2 0x862 DUP2 PUSH2 0x826 JUMP JUMPDEST SWAP1 POP SWAP2 SWAP1 POP JUMP JUMPDEST PUSH1 0x0 PUSH2 0x874 DUP3 PUSH2 0x4DB JUMP JUMPDEST SWAP2 POP PUSH2 0x87F DUP4 PUSH2 0x4DB JUMP JUMPDEST SWAP3 POP DUP3 DUP3 ADD SWAP1 POP DUP1 DUP3 GT ISZERO PUSH2 0x897 JUMPI PUSH2 0x896 PUSH2 0x708 JUMP JUMPDEST JUMPDEST SWAP3 SWAP2 POP POP JUMP JUMPDEST PUSH1 0x0 PUSH2 0x8A8 DUP3 PUSH2 0x4DB JUMP JUMPDEST SWAP2 POP PUSH32 0xFFFFFFFFFFFFFFFFFFFFFFFFFFFFFFFFFFFFFFFFFFFFFFFFFFFFFFFFFFFFFFFF DUP3 SUB PUSH2 0x8DA JUMPI PUSH2 0x8D9 PUSH2 0x708 JUMP JUMPDEST JUMPDEST PUSH1 0x1 DUP3 ADD SWAP1 POP SWAP2 SWAP1 POP JUMP JUMPDEST PUSH1 0x0 PUSH2 0x8F0 DUP3 PUSH2 0x4DB JUMP JUMPDEST SWAP2 POP PUSH2 0x8FB DUP4 PUSH2 0x4DB JUMP JUMPDEST SWAP3 POP DUP3 DUP3 MUL PUSH2 0x909 DUP2 PUSH2 0x4DB JUMP JUMPDEST SWAP2 POP DUP3 DUP3 DIV DUP5 EQ DUP4 ISZERO OR PUSH2 0x920 JUMPI PUSH2 0x91F PUSH2 0x708 JUMP JUMPDEST JUMPDEST POP SWAP3 SWAP2 POP POP JUMP INVALID LOG2 PUSH5 0x6970667358 0x22 SLT KECCAK256 PUSH13 0xAF67169344D88CBA4F9FC6A63A 0xD2 EXTCODESIZE PUSH15 0x83CA5B5580BCDA3E5B38EBA61453CD PUSH5 0x736F6C6343 STOP ADDMOD GT STOP CALLER "
				},
				"gasEstimates": {
					"creation": {
						"codeDepositCost": "479400",
						"executionCost": "infinite",
						"totalCost": "infinite"
					},
					"external": {
						"countDonators()": "2429",
						"donate()": "infinite",
						"goal()": "2407",
						"saldo()": "2473",
						"take(uint256)": "infinite"
					},
					"internal": {
						"closeCheck()": "28540",
						"etherValue(uint256)": "infinite",
						"goalCheck()": "4232"
					}
				},
				"methodIdentifiers": {
					"countDonators()": "48f0dc42",
					"donate()": "ed88c68e",
					"goal()": "40193883",
					"saldo()": "a41de865",
					"take(uint256)": "4fd9efc4"
				}
			},
			"storageLayout": {
				"storage": [
					{
						"astId": 5,
						"contract": "contracts/Founds.sol:Founds",
						"label": "saldo",
						"offset": 0,
						"slot": "0",
						"type": "t_uint256"
					},
					{
						"astId": 7,
						"contract": "contracts/Founds.sol:Founds",
						"label": "owner",
						"offset": 0,
						"slot": "1",
						"type": "t_address_payable"
					},
					{
						"astId": 9,
						"contract": "contracts/Founds.sol:Founds",
						"label": "goal",
						"offset": 0,
						"slot": "2",
						"type": "t_uint256"
					},
					{
						"astId": 12,
						"contract": "contracts/Founds.sol:Founds",
						"label": "countDonators",
						"offset": 0,
						"slot": "3",
						"type": "t_uint256"
					},
					{
						"astId": 16,
						"contract": "contracts/Founds.sol:Founds",
						"label": "donators",
						"offset": 0,
						"slot": "4",
						"type": "t_mapping(t_address,t_bool)"
					},
					{
						"astId": 19,
						"contract": "contracts/Founds.sol:Founds",
						"label": "closed",
						"offset": 0,
						"slot": "5",
						"type": "t_bool"
					}
				],
				"types": {
					"t_address": {
						"encoding": "inplace",
						"label": "address",
						"numberOfBytes": "20"
					},
					"t_address_payable": {
						"encoding": "inplace",
						"label": "address payable",
						"numberOfBytes": "20"
					},
					"t_bool": {
						"encoding": "inplace",
						"label": "bool",
						"numberOfBytes": "1"
					},
					"t_mapping(t_address,t_bool)": {
						"encoding": "mapping",
						"key": "t_address",
						"label": "mapping(address => bool)",
						"numberOfBytes": "32",
						"value": "t_bool"
					},
					"t_uint256": {
						"encoding": "inplace",
						"label": "uint256",
						"numberOfBytes": "32"
					}
				}
			},
			"userdoc": {
				"kind": "user",
				"methods": {
					"donate()": {
						"notice": "function used to donate an amount of money"
					},
					"take(uint256)": {
						"notice": "Function that allow the manager (only) to take an amount of money"
					}
				},
				"notice": "Contract **Founds**",
				"version": 1
			}
		}
	}
}